:020000040000FA
:1000000080315328063400347E1480318B1E092839
:100010000A2812280B1D0D280E2812288731612767
:10002000803151280B1E152816281E288B1C1928D4
:100030001A281E288731FB27803151288B1D212843
:1000400022282A280B1C252826282A2885317025B5
:10005000803151280B1F2D282E2851282100921D58
:10006000322833283C282000921D372838283C2885
:100070008F313D27803151282100911D4028412892
:1000800051282000911D452846285128803177208D
:100090008031512851285128512851285128512860
:1000A00051287E100900803155288031022080318E
:1000B000EC00803103208031ED00F801F901FA01F4
:1000C000FB01FC01FD014830840000308500173041
:1000D0008F3184278031A0308400003085000830C3
:1000E0008F31842780317E1020008231ED2A20005C
:1000F00091112400951F7D287E28FB299513FB0173
:100100007808023E86008701010886008701810188
:10011000810AF8010D2A0D2AFB292000CA1891280E
:1001200092280D2A4908F2007208F8004908860052
:1001300087010108F2007208FA0049088600870169
:10014000413FF9000330F2007208C90749085D3ADF
:10015000031DAB28AC28B1285A30F2007208C90040
:10016000B1284A1049084806031DB728B828B928FD
:10017000CA14240016140230F2007208FB000D2A83
:100180000D2A240096140230F2007208FB000D2A9A
:100190002400161FCC28CD28D7280130F200720881
:1001A0002000CC0704308631FC2680310D2A7D08E2
:1001B000F3007C08F200F336F20C72082400910080
:1001C0007C1CE328E428E9280B30F2007208FB00CD
:1001D0000D2A0330F2007208FB000D2A0D2A0D2AA9
:1001E0002400161FF428F528FF280130F2007208B9
:1001F0002000CC0704308631FC2680310D2A96146D
:100200007D08F3007C08F2007308F200F301063069
:100210007205F40000307305F500F0307404FC0042
:1002200000307504FD007C142000D701D70A02308D
:10023000F2007208FB000D2A0D2A20005703031953
:10024000222923295629790886008701403FFC008E
:10025000413FFD00790886008701433FD9007908B6
:1002600086008701423FD800562956297C087D0424
:1002700003193B293C2956295708031D40294129C8
:100280004B297D080639F038240091000A30F2002D
:100290007208FB000D2A7C08240091000530F20052
:1002A0007208FB002000D7010D2A0D2A7C082400CB
:1002B00091007C1C5C295D2962290530F2007208DE
:1002C000FB000D2A0330F2007208FB000D2A0D2AF4
:1002D0000D2A2400161F6D296E297A290130F2009B
:1002E00072082000CC072400161305308631FC2646
:1002F00080310D2A01302000D802580A031D8129BF
:10030000822999290430F2007208F9070130FA02B3
:10031000031D8B298C29912900308631FC268031E0
:100320000D2A240096140230F2007208FB000D2AF8
:100330000D2A200059088600870101082400910039
:100340000130F20072082000D9070D2A0D2A0D2A6B
:100350002400161FAC29AD29B9290130F20072081A
:100360002000CC0704308631FC268031240016138F
:100370000D2A96150830F2007208FB000D2A0D2A8E
:100380000830F2007208FB00240096150D2A2400A4
:100390001108F200200059088600870172088100C8
:1003A0000130F2007208D9070130D8020319D929A7
:1003B000DA29E129240096120630F2007208FB00C7
:1003C000E729240096168731A8278031E7292400E1
:1003D00016160D2AEB2900308631FC2680310D2AB5
:1003E0000130F20072082000CC0706308631FC266E
:1003F00080310D2A0D2A7B08F200F3017308003AC0
:100400000319032AF029720884000C30040203182F
:10041000F029873104357A3E820008002000B701B8
:10042000472A3008B5003508A7002F08A9002E0874
:10043000A8003408B6003608AA00310884312D24FB
:100440008231232A232A20003408860087010230C3
:10045000010603192C2A2D2A232A2E2A3408860065
:1004600087010108031D352A362A382A502A502AC6
:100470000A303706031D3D2A3E2A412A502A502AB7
:10048000472A0130B5003508B707472A472A3408FC
:10049000860087010103031D4E2A4F2A112A502A84
:1004A0003408860087010108031D572A582A9A2A12
:1004B000B701902A3208B5003508A7002F08A90017
:1004C0002E08A8003408B6003608AA003308843184
:1004D000592482316C2A6C2A200034088600870156
:1004E000023001060319752A762A6C2A772A340805
:1004F000860087010108031D7E2A7F2A812A9A2A05
:100500009A2A0A303706031D862A872A8A2A9A2AB7
:100510009A2A902A0130B5003508B707902A902A08
:100520003408860087010103031D972A982A5A2A56
:100530009A2A9A2A08002000A3004A18A02AA12A71
:10054000D72A0230A20021088600870122088100F4
:100550002008A200480A860087012208810023089B
:10056000A200480886008701220881002108A20015
:100570004808023E86008701220881000330A2005D
:100580002208C80748085D3A031DC72AC82ACD2A91
:100590005A30A2002208C800CD2ACA1049084806CD
:1005A000031DD32AD42ADD2A4A14DD2ADD2A210894
:1005B000860087018101810ADD2A210886008701E2
:1005C00002300106031DE52AE62AEC2A8F31AA270C
:1005D000823120009115EC2A08008631A62682314E
:1005E0008F31BC2782318F31B32782318631452646
:1005F000823186316626823185314A2582318B17D8
:100600000B178531DE2582318431D5248231003AC1
:10061000031D0B2B0C2B132B14302000C500450899
:10062000D600132B132B20000E1A172B182B1C2B64
:100630008431FC2482311C2B20005508031D212B02
:10064000222B262B843100248231262B8431D52481
:1006500082312000C5004508C70005302000C600D3
:100660000F30C500F130890B332BC50B332BC60B74
:10067000332B132B132B8031532802302000B3006F
:1006800032088600870133088100B5017D2B3008D0
:10069000B3003308A7002F08A9002E08A8003208CD
:1006A000B4003408AA00310884312D248331592B39
:1006B000592B2000320886008701023001060319F9
:1006C000622B632B592B642B3208860087010108AB
:1006D000031D6B2B6C2B6E2B862B862B0A3035065D
:1006E000031D732B742B772B862B862B7D2B0130D0
:1006F000B3003308B5077D2B7D2B320886008701B8
:100700000103031D842B852B472B862B0800220019
:100710008C018D018E013F3021008C00F0308D0066
:10072000D0308E00C03023008E008D018C0124005B
:100730008D018C012100951722009D0127001312C5
:10074000931212169216111691169612961395166A
:1007500095179416941738302000A0000F30A10090
:100760008F316027833139302000A0000F30A10085
:100770008F31662783313A302000A0000F30A1006E
:100780008F316C2783313B302000A0000F30A10057
:100790008F31722783318B1508008531BA2583315B
:1007A000F400F501F41BF50374082000EC0775084C
:1007B000ED3D6D08803AF40080307402031DE22B99
:1007C00040306C02031CE52BE62BEB2B3F30200066
:1007D000EC000030ED0020006D08803AF40080301D
:1007E0007402031DF52B06306C020318F82BF92B4D
:1007F000FF2B06302000EC000030ED00FF2B08003E
:10080000063020006C066D04031D072C082C0C2CF0
:100810008531DE2584312C2C20005508031D112C38
:10082000122C2C2C4414C4106C083F39C300C30D87
:10083000C30D4408430603394306C400C030B60064
:100840000030B700B8014408C3004308B90086313E
:10085000C52684312C2C2C2C08002000AD004A1811
:10086000322C332C512C2D08AB002B08A00027086C
:10087000AC002C08A1002908A3002808A200A4307D
:10088000863186268431A4302000AB002B08A000DE
:100890002A08AC002C08A100013082319B2284314F
:1008A000582C20002A08860087018101810A582CD3
:1008B00008002000AD004A185E2C5F2C7D2C2D080E
:1008C000AB002B08A0002708AC002C08A1002908C9
:1008D000A3002808A200A030843185248431A030F0
:1008E0002000AB002B08A0002A08AC002C08A100B7
:1008F000013082319B228431842C20002A0886001A
:1009000087018101810A842C08002000A6002308A9
:10091000A5002208A400A435A50D2608860087019D
:100920002408C03F2508C13F260886008701013002
:1009300081044131003081042108A4002608023ED0
:1009400086008701240881002008A4002608033EB1
:1009500086008701240881000800853195258431AF
:10096000F400F501F41BF50374082000CF077508A7
:10097000D03D5008803AF40080307402031DC22C30
:1009800040304F02031CC52CC62CCC2C3F3020001D
:10099000CF000030D000CC2C2000D01FD02CD12C88
:1009A000D42CCF01D001D42C08002000C30100308A
:1009B000840088308500003FB800013FB900043052
:1009C0008400883085000008C1004108BA00433027
:1009D000C2004208BB00863101268431003A031967
:1009E000F22CF32CF82C20004308C1004108D6005B
:1009F00020004308FB2C0800C0302000B800003065
:100A0000B900BA01BA0A4430C1004108BB008631BE
:100A1000012684312000C2004208C30043080319A4
:100A2000122D132D222D44080319172D182D222DB8
:100A3000441C1B2D1C2D222D4408C1004108D5004B
:100A4000222D222D080064000130F60076082000D7
:100A5000D307023084008830850000085302031C4D
:100A6000322D332D492DD3015408F600F7017608B5
:100A7000F0007708F1003C30F2000030F3008631DE
:100A80002326853171082000CE007008CD00D401E6
:100A9000492D080020004F085004031D502D512DF2
:100AA0005C2D22000E15542D00302000A000A10066
:100AB00087312F278531672D22000E115F2D2000F1
:100AC0005008A1004F08A00087312F278531200052
:100AD0005008A1004F08A000873148278531080041
:100AE0002700131E742D752D792D8F31F027853138
:100AF000792D2700931E7D2D7E2D822D8731EB27AA
:100B00008531822D2700961E862D872D8B2D8731CE
:100B1000DB2785318B2D2700961F8F2D902D942D4F
:100B20008731CB278531942D080020000D0E890CCC
:100B30000139F0000D0D0D0D0139F1000130F135D5
:100B4000890B9F2D5D080339F2000130F235FF3E1D
:100B5000031DA62D723571047004F3007308DD00C7
:100B60005D08BB3E840087300318013E8500000805
:100B7000B92D080020000C0E0139F0000C0E890C74
:100B80000139F1000130F135890BC32D5E080339BD
:100B9000F2000130F235FF3E031DCA2D723571049B
:100BA0007004F3007308DE005E08BB3E84008730EB
:100BB0000318013E85000008DD2D080020004210CA
:100BC000C210420803391838C200C030B6000030E5
:100BD000B700B8014208C0004008B9008631C526F8
:100BE00085312000C117C030B6000030B700B80111
:100BF000B80A4108C0004008B9008631C5268531D1
:100C0000080020003908AF003808AE00B001B00A73
:100C10003F30BC003C08B100B201B20A3B08BD0045
:100C20003D08B3004030BE003E08B40082310E22C1
:100C3000863120004003031D1E2E202E0130212E60
:100C40000030222E0800F401F501262E701C292EFA
:100C50002A2E2E2E7208F4077308F53D0130F23566
:100C6000F30D890B2F2E0130F136F00C890B342E49
:100C700070087104031D3D2E3E2E262E3F2E750852
:100C8000F1007408F000442E080040302000A0005D
:100C90000F30A1008F316027863144302000A00042
:100CA0000F30A1008F316627863148302000A00028
:100CB0000F30A1008F316C2786314C302000A0000E
:100CC0000F30A1008F3172278631080006302000D6
:100CD0006C066D04031D6D2E6E2E792E22000E14EF
:100CE000712E00302000A000A10087311627863128
:100CF000852E22000E107C2E20006D08A1006C08AD
:100D0000A000873116278631852E08002000A60016
:100D10002308A5002208A400A435A50D26088600F6
:100D200087012408C03F2508C13F2108A4002608E8
:100D3000023E86008701240881002008A4002608BE
:100D4000033E860087012408810008008331872341
:100D500086318F31782786318F3150278631863121
:100D6000E22686318F318A2786318F31922786316C
:100D70008F319A2786318F31A22786318F31C7274D
:100D80008631873192278631080020003808BA0062
:100D90003A08BD003908BA003A08BE003708AF006B
:100DA0003608AE000230BA003A08B0003D30BB0051
:100DB0003B08B1003F30BC003C08B20083313D230A
:100DC000863108005A302000A0002008C9005A309F
:100DD000A0002008C800CA144A10CC0124009401C5
:100DE000283095009701093092002000911192114E
:100DF0002100911592150800F100240016157808BD
:100E0000023E8600870101080319072F082F142FBF
:100E10007108F0007808023E86008701010886000C
:100E2000870170088100142FFB01080020002108B1
:100E3000A3002008A200A336A20CA336A20C22080D
:100E40002C009500200020080339A2000530A235AF
:100E5000FF3E031D272F22352C00940008002000A0
:100E60002108A3002008A200A336A20CA336A20CDE
:100E700022082C009B00200020080339A200053026
:100E8000A235FF3E031D402F22352C009A0008009A
:100E900020002108A3002008A200A336A20CA3363C
:100EA000A20C22082C009200200020080339A20086
:100EB0000530A235FF3E031D592F22352C0091002D
:100EC00008000B1120006B0895000130D10700309D
:100ED000D23D00305202103003195102031C712F11
:100EE000722F792F8F31E22787312000D101D20173
:100EF000792F080080318D288031C12881311D294A
:100F0000813169298131EB298131A8298131C029B9
:100F10008131EB298131C7298131F0298031C828FD
:100F20008031F02821001508C03917389500D830D5
:100F300020009500D830A2002208EB000B118B1680
:100F40003C30A0000F30A1008F317E278731080090
:100F50000430F0007008F9070130FA02031DB12FC8
:100F6000B22FB72F0430F0007008FB00BA2FFB013E
:100F7000FB0ABA2F080000340134FF340034FF3478
:100F8000003400340134013400340034FF340034C0
:100F9000FF340134003420005F0860040319D12FAE
:100FA000D22FD82F60088A005F080A008731D82F17
:100FB0002700961308002000610862040319E12F3E
:100FC000E22FE82F62088A0061080A008731E82FC3
:100FD0002700961208002000630864040319F12F0B
:100FE000F22FF82F64088A0063080A008731F82F6F
:100FF0002700931208008B108F31D4278731080007
:0A1000007234003419340234003455
:101E6E000800080008000800080008002000921171
:101E7E0008008331CD238F3108008331CD238F317C
:101E8E0008008431AD248F3108008431AD248F31A8
:101E9E00080016302100970008000130F00070088D
:101EAE002000D407080020002108E8002008E700E1
:101EBE00080020002108E6002008E50008002000A8
:101ECE002108E4002008E300080020002108E200B9
:101EDE002008E100080020002108E0002008DF00B3
:101EEE000800783021009900220096010800200099
:101EFE002108EA002008E900080064008001013191
:101F0E00890B852F0034C0302C00930007309200CF
:101F1E00C03091000800C0302C00960007309500AC
:101F2E00C03094000800C0302C009C0007309B008D
:101F3E00C0309A0008000F3020009B009A019110CB
:101F4E0006309C000800AC2FAC2F7B08031DB02F71
:101F5E00B12FAC2FB22F080023302000A000053087
:101F6E00A1008F317E278F310800210015135430C8
:101F7E002000A0000F30A1008F315A278F310800AA
:101F8E008B102100151337302000A0000F30A10058
:101F9E008F315A278F310B1608002000670868040E
:101FAE000319DA2FDB2FE12F68088A0067080A0071
:101FBE008F31E12F0800200069086A040319E82F09
:101FCE00E92FEF2F6A088A0069080A008F31EF2F78
:101FDE0008002000650866040319F62FF72FFD2F61
:101FEE0066088A0065080A008F31FD2F270013123C
:021FFE000800D9
:020000040001F9
:04000E00E4FFFFFF0D
:00000001FF
